{
  "contractName": "MyDeFiProject",
  "abi": [
    {
      "inputs": [
        {
          "internalType": "address",
          "name": "_uniswap",
          "type": "address"
        }
      ],
      "stateMutability": "nonpayable",
      "type": "constructor"
    },
    {
      "inputs": [
        {
          "internalType": "address",
          "name": "token",
          "type": "address"
        },
        {
          "internalType": "address",
          "name": "owner",
          "type": "address"
        }
      ],
      "name": "getbalance",
      "outputs": [
        {
          "internalType": "uint256",
          "name": "",
          "type": "uint256"
        }
      ],
      "stateMutability": "view",
      "type": "function"
    },
    {
      "inputs": [
        {
          "internalType": "address",
          "name": "token",
          "type": "address"
        },
        {
          "internalType": "uint256",
          "name": "amountIn",
          "type": "uint256"
        },
        {
          "internalType": "uint256",
          "name": "amountOutMin",
          "type": "uint256"
        },
        {
          "internalType": "uint256",
          "name": "deadline",
          "type": "uint256"
        }
      ],
      "name": "swapTokensForEth",
      "outputs": [],
      "stateMutability": "nonpayable",
      "type": "function"
    }
  ],
  "bytecode": "0x608060405234801561001057600080fd5b506040516108263803806108268339818101604052602081101561003357600080fd5b8101908080519060200190929190505050806000806101000a81548173ffffffffffffffffffffffffffffffffffffffff021916908373ffffffffffffffffffffffffffffffffffffffff16021790555050610792806100946000396000f3fe608060405234801561001057600080fd5b50600436106100365760003560e01c806350ec07c31461003b57806383655467146100b3575b600080fd5b61009d6004803603604081101561005157600080fd5b81019080803573ffffffffffffffffffffffffffffffffffffffff169060200190929190803573ffffffffffffffffffffffffffffffffffffffff169060200190929190505050610115565b6040518082815260200191505060405180910390f35b610113600480360360808110156100c957600080fd5b81019080803573ffffffffffffffffffffffffffffffffffffffff1690602001909291908035906020019092919080359060200190929190803590602001909291905050506101c0565b005b60008273ffffffffffffffffffffffffffffffffffffffff166370a08231836040518263ffffffff1660e01b8152600401808273ffffffffffffffffffffffffffffffffffffffff16815260200191505060206040518083038186803b15801561017e57600080fd5b505afa158015610192573d6000803e3d6000fd5b505050506040513d60208110156101a857600080fd5b81019080805190602001909291905050505092915050565b8373ffffffffffffffffffffffffffffffffffffffff1663dd62ed3e33306040518363ffffffff1660e01b8152600401808373ffffffffffffffffffffffffffffffffffffffff1681526020018273ffffffffffffffffffffffffffffffffffffffff1681526020019250505060206040518083038186803b15801561024557600080fd5b505afa158015610259573d6000803e3d6000fd5b505050506040513d602081101561026f57600080fd5b8101908080519060200190929190505050508373ffffffffffffffffffffffffffffffffffffffff166323b872dd3330866040518463ffffffff1660e01b8152600401808473ffffffffffffffffffffffffffffffffffffffff1681526020018373ffffffffffffffffffffffffffffffffffffffff1681526020018281526020019350505050602060405180830381600087803b15801561031057600080fd5b505af1158015610324573d6000803e3d6000fd5b505050506040513d602081101561033a57600080fd5b8101908080519060200190929190505050506060600267ffffffffffffffff8111801561036657600080fd5b506040519080825280602002602001820160405280156103955781602001602082028036833780820191505090505b50905084816000815181106103a657fe5b602002602001019073ffffffffffffffffffffffffffffffffffffffff16908173ffffffffffffffffffffffffffffffffffffffff168152505060008054906101000a900473ffffffffffffffffffffffffffffffffffffffff1673ffffffffffffffffffffffffffffffffffffffff1663ad5c46486040518163ffffffff1660e01b815260040160206040518083038186803b15801561044657600080fd5b505afa15801561045a573d6000803e3d6000fd5b505050506040513d602081101561047057600080fd5b81019080805190602001909291905050508160018151811061048e57fe5b602002602001019073ffffffffffffffffffffffffffffffffffffffff16908173ffffffffffffffffffffffffffffffffffffffff16815250508473ffffffffffffffffffffffffffffffffffffffff1663095ea7b360008054906101000a900473ffffffffffffffffffffffffffffffffffffffff16866040518363ffffffff1660e01b8152600401808373ffffffffffffffffffffffffffffffffffffffff16815260200182815260200192505050602060405180830381600087803b15801561055957600080fd5b505af115801561056d573d6000803e3d6000fd5b505050506040513d602081101561058357600080fd5b81019080805190602001909291905050505060008054906101000a900473ffffffffffffffffffffffffffffffffffffffff1673ffffffffffffffffffffffffffffffffffffffff166318cbafe585858433876040518663ffffffff1660e01b815260040180868152602001858152602001806020018473ffffffffffffffffffffffffffffffffffffffff168152602001838152602001828103825285818151815260200191508051906020019060200280838360005b8381101561065657808201518184015260208101905061063b565b505050509050019650505050505050600060405180830381600087803b15801561067f57600080fd5b505af1158015610693573d6000803e3d6000fd5b505050506040513d6000823e3d601f19601f8201168201806040525060208110156106bd57600080fd5b81019080805160405193929190846401000000008211156106dd57600080fd5b838201915060208201858111156106f357600080fd5b825186602082028301116401000000008211171561071057600080fd5b8083526020830192505050908051906020019060200280838360005b8381101561074757808201518184015260208101905061072c565b5050505090500160405250505050505050505056fea2646970667358221220e2c2be42d7085da7189826f97d457f5cd5212e074c8e85ef2b76217beba8753664736f6c634300060c0033",
  "immutableReferences": {},
  "source": "import \"./IUni.sol\";\n\ncontract MyDeFiProject  {\n IUniswap uniswap;\n\n constructor(address _uniswap) public {\n   uniswap = IUniswap(_uniswap);\n }\n\n function getbalance(address token, address owner) external view returns (uint) {\n   IERC20(token).balanceOf(owner);\n }\n  // La fonction qui va permettre le swap\n function swapTokensForEth(address token, uint amountIn, uint amountOutMin, uint deadline) external {\n   IERC20(token).allowance(msg.sender, address(this));\n   IERC20(token).transferFrom(msg.sender, address(this), amountIn); // Transfert des tokens en question au smart contract ! Il faut penser à approve ce transfert avant l’utilisation de cette fonction\n   address[] memory path = new address[](2); // Création du path\n   path[0] = address(token); // initialisation du path avec l'address du token à échanger\n   path[1] = uniswap.WETH(); // initialisation du path avec l'address du WETH d'Uniswap\n   IERC20(token).approve(address(uniswap), amountIn); // autoriser uniswap à utiliser nos tokens\n   uniswap.swapExactTokensForETH(\n     amountIn,\n     amountOutMin,\n     path,\n     msg.sender,\n     deadline\n   ); // effectuer le swap, ETH sera transférer directement au msg.sender\n }\n}\n",
  "sourcePath": "/Users/arnauddauber/Desktop/UNItest/contracts/MyDefi.sol",
  "compiler": {
    "name": "solc",
    "version": "0.6.12+commit.27d51765.Emscripten.clang"
  },
  "schemaVersion": "3.3.4",
  "updatedAt": "2021-04-03T14:30:28.675Z",
  "devdoc": {
    "kind": "dev",
    "methods": {},
    "version": 1
  },
  "userdoc": {
    "kind": "user",
    "methods": {},
    "version": 1
  }
}